{
  "contractName": "Divided",
  "abi": [
    {
      "constant": true,
      "inputs": [],
      "name": "VoteCondition",
      "outputs": [
        {
          "name": "Yes",
          "type": "uint256"
        },
        {
          "name": "No",
          "type": "uint256"
        }
      ],
      "payable": false,
      "stateMutability": "view",
      "type": "function",
      "signature": "0x1dedddbe"
    },
    {
      "inputs": [
        {
          "name": "investorAddress",
          "type": "address"
        }
      ],
      "payable": true,
      "stateMutability": "payable",
      "type": "constructor",
      "signature": "constructor"
    },
    {
      "payable": true,
      "stateMutability": "payable",
      "type": "fallback"
    },
    {
      "constant": false,
      "inputs": [],
      "name": "ReVote",
      "outputs": [
        {
          "name": "",
          "type": "bool"
        }
      ],
      "payable": false,
      "stateMutability": "nonpayable",
      "type": "function",
      "signature": "0x140e5944"
    },
    {
      "constant": true,
      "inputs": [],
      "name": "GetTotalProfit",
      "outputs": [
        {
          "name": "",
          "type": "uint256"
        }
      ],
      "payable": false,
      "stateMutability": "view",
      "type": "function",
      "signature": "0x8d30453f"
    },
    {
      "constant": false,
      "inputs": [
        {
          "name": "YourIndex",
          "type": "uint256"
        },
        {
          "name": "Yes1_or_No0",
          "type": "uint256"
        }
      ],
      "name": "VoteToDistribution",
      "outputs": [
        {
          "name": "",
          "type": "bool"
        }
      ],
      "payable": true,
      "stateMutability": "payable",
      "type": "function",
      "signature": "0xdaa161ce"
    }
  ],
  "bytecode": "0x60806040526000600155604051602080610ebd8339810180604052602081101561002857600080fd5b8101908080519060200190929190505050806000806101000a81548173ffffffffffffffffffffffffffffffffffffffff021916908373ffffffffffffffffffffffffffffffffffffffff16021790555050610e34806100896000396000f3fe608060405260043610610062576000357c0100000000000000000000000000000000000000000000000000000000900463ffffffff168063140e5944146100645780631dedddbe146100935780638d30453f146100c5578063daa161ce146100f0575b005b34801561007057600080fd5b50610079610140565b604051808215151515815260200191505060405180910390f35b34801561009f57600080fd5b506100a8610206565b604051808381526020018281526020019250505060405180910390f35b3480156100d157600080fd5b506100da610218565b6040518082815260200191505060405180910390f35b6101266004803603604081101561010657600080fd5b810190808035906020019092919080359060200190929190505050610237565b604051808215151515815260200191505060405180910390f35b60008060009054906101000a900473ffffffffffffffffffffffffffffffffffffffff1673ffffffffffffffffffffffffffffffffffffffff1663fb6916336040518163ffffffff167c0100000000000000000000000000000000000000000000000000000000028152600401602060405180830381600087803b1580156101c757600080fd5b505af11580156101db573d6000803e3d6000fd5b505050506040513d60208110156101f157600080fd5b81019080805190602001909291905050505090565b60028060000154908060010154905082565b60003073ffffffffffffffffffffffffffffffffffffffff1631905090565b6000826000809054906101000a900473ffffffffffffffffffffffffffffffffffffffff1673ffffffffffffffffffffffffffffffffffffffff1663e65d299b336040518263ffffffff167c0100000000000000000000000000000000000000000000000000000000028152600401808273ffffffffffffffffffffffffffffffffffffffff1673ffffffffffffffffffffffffffffffffffffffff16815260200191505060206040518083038186803b1580156102f457600080fd5b505afa158015610308573d6000803e3d6000fd5b505050506040513d602081101561031e57600080fd5b810190808051906020019092919050505014151561033b57600080fd5b60016000809054906101000a900473ffffffffffffffffffffffffffffffffffffffff1673ffffffffffffffffffffffffffffffffffffffff1663ee6308e0336040518263ffffffff167c0100000000000000000000000000000000000000000000000000000000028152600401808273ffffffffffffffffffffffffffffffffffffffff1673ffffffffffffffffffffffffffffffffffffffff16815260200191505060206040518083038186803b1580156103f757600080fd5b505afa15801561040b573d6000803e3d6000fd5b505050506040513d602081101561042157600080fd5b810190808051906020019092919050505014151561043e57600080fd5b600182148061044d5750600082145b151561045857600080fd5b600182141561047a57600160026000016000828254019250508190555061048f565b60016002600101600082825401925050819055505b6000809054906101000a900473ffffffffffffffffffffffffffffffffffffffff1673ffffffffffffffffffffffffffffffffffffffff1663e5da8f17846040518263ffffffff167c010000000000000000000000000000000000000000000000000000000002815260040180828152602001915050602060405180830381600087803b15801561051f57600080fd5b505af1158015610533573d6000803e3d6000fd5b505050506040513d602081101561054957600080fd5b810190808051906020019092919050505050600180600082825401925050819055506001546000809054906101000a900473ffffffffffffffffffffffffffffffffffffffff1673ffffffffffffffffffffffffffffffffffffffff16631843d3e36040518163ffffffff167c010000000000000000000000000000000000000000000000000000000002815260040160006040518083038186803b1580156105f157600080fd5b505afa158015610605573d6000803e3d6000fd5b505050506040513d6000823e3d601f19601f82011682018060405250602081101561062f57600080fd5b81019080805164010000000081111561064757600080fd5b8281019050602081018481111561065d57600080fd5b815185602082028301116401000000008211171561067a57600080fd5b50509291905050505114801561069c5750600060026001015460026000015403115b15610dc55760003073ffffffffffffffffffffffffffffffffffffffff163190506000600190505b60016000809054906101000a900473ffffffffffffffffffffffffffffffffffffffff1673ffffffffffffffffffffffffffffffffffffffff16631843d3e36040518163ffffffff167c010000000000000000000000000000000000000000000000000000000002815260040160006040518083038186803b15801561074957600080fd5b505afa15801561075d573d6000803e3d6000fd5b505050506040513d6000823e3d601f19601f82011682018060405250602081101561078757600080fd5b81019080805164010000000081111561079f57600080fd5b828101905060208101848111156107b557600080fd5b81518560208202830111640100000000821117156107d257600080fd5b505092919050505051018110156107f05780806001019150506106c4565b506000600190505b60016000809054906101000a900473ffffffffffffffffffffffffffffffffffffffff1673ffffffffffffffffffffffffffffffffffffffff16631843d3e36040518163ffffffff167c010000000000000000000000000000000000000000000000000000000002815260040160006040518083038186803b15801561087d57600080fd5b505afa158015610891573d6000803e3d6000fd5b505050506040513d6000823e3d601f19601f8201168201806040525060208110156108bb57600080fd5b8101908080516401000000008111156108d357600080fd5b828101905060208101848111156108e957600080fd5b815185602082028301116401000000008211171561090657600080fd5b50509291905050505101811015610da45760006103e8610ba36000809054906101000a900473ffffffffffffffffffffffffffffffffffffffff1673ffffffffffffffffffffffffffffffffffffffff166308c906bf6000809054906101000a900473ffffffffffffffffffffffffffffffffffffffff1673ffffffffffffffffffffffffffffffffffffffff16638ac33400876040518263ffffffff167c010000000000000000000000000000000000000000000000000000000002815260040180828152602001915050602060405180830381600087803b1580156109ec57600080fd5b505af1158015610a00573d6000803e3d6000fd5b505050506040513d6020811015610a1657600080fd5b81019080805190602001909291905050506040518263ffffffff167c0100000000000000000000000000000000000000000000000000000000028152600401808273ffffffffffffffffffffffffffffffffffffffff1673ffffffffffffffffffffffffffffffffffffffff16815260200191505060206040518083038186803b158015610aa357600080fd5b505afa158015610ab7573d6000803e3d6000fd5b505050506040513d6020811015610acd57600080fd5b81019080805190602001909291905050506000809054906101000a900473ffffffffffffffffffffffffffffffffffffffff1673ffffffffffffffffffffffffffffffffffffffff1663e70b7acb6040518163ffffffff167c010000000000000000000000000000000000000000000000000000000002815260040160206040518083038186803b158015610b6157600080fd5b505afa158015610b75573d6000803e3d6000fd5b505050506040513d6020811015610b8b57600080fd5b81019080805190602001909291905050506003610dcf565b8402811515610bae57fe5b0490506000809054906101000a900473ffffffffffffffffffffffffffffffffffffffff1673ffffffffffffffffffffffffffffffffffffffff16639e4a51a283836040518363ffffffff167c01000000000000000000000000000000000000000000000000000000000281526004018083815260200182815260200192505050602060405180830381600087803b158015610c4957600080fd5b505af1158015610c5d573d6000803e3d6000fd5b505050506040513d6020811015610c7357600080fd5b8101908080519060200190929190505050506000809054906101000a900473ffffffffffffffffffffffffffffffffffffffff1673ffffffffffffffffffffffffffffffffffffffff16638ac33400836040518263ffffffff167c010000000000000000000000000000000000000000000000000000000002815260040180828152602001915050602060405180830381600087803b158015610d1557600080fd5b505af1158015610d29573d6000803e3d6000fd5b505050506040513d6020811015610d3f57600080fd5b810190808051906020019092919050505073ffffffffffffffffffffffffffffffffffffffff166108fc829081150290604051600060405180830381858888f19350505050158015610d95573d6000803e3d6000fd5b505080806001019150506107f8565b50600060018190555060006002600001819055506000600260010181905550505b6001905092915050565b60008060018301600a0a850290506000600a60058684811515610dee57fe5b0401811515610df957fe5b0490508092505050939250505056fea165627a7a72305820b6536d30a32e2d8845ab0a9c9168ec342bdbf42d6c96d37dea9fb1aa8af1daa00029",
  "source": "pragma solidity^0.5.0;\nimport \"./Investor.sol\";\n\ncontract Divided{\n    \n    Investor investorInstance;\n    \n    constructor(address payable investorAddress)public payable{\n        investorInstance = Investor(investorAddress);\n    }\n    \n    uint VotetoDivide = 0;\n    struct Vote{\n        uint Yes;\n        uint No; \n    }\n    Vote public VoteCondition;\n    \n    \n    function ReVote() public returns(bool){\n        investorInstance.RearrangeVote(); //Give right to vote about distribute\n    }\n    function GetTotalProfit() view public returns(uint){\n        return address(this).balance;\n    }\n    \n    function VoteToDistribution(uint YourIndex, uint Yes1_or_No0) public payable returns(bool){\n        require(investorInstance.GetuserToId(msg.sender) == YourIndex);\n        require(investorInstance.GetUser_Votes(msg.sender) == 1);       //make sure voter have right\n        require(Yes1_or_No0 == 1 || Yes1_or_No0 == 0 );\n        if(Yes1_or_No0 == 1){\n            VoteCondition.Yes += 1;\n        }\n        else{\n            VoteCondition.No += 1;\n        }\n        investorInstance.UpdateVote(YourIndex); //Voted_right = 0\n        VotetoDivide +=1;\n        if(investorInstance.GetInvestors().length == VotetoDivide && (VoteCondition.Yes-VoteCondition.No) > 0){  //多數決\n            // distribute Money to Investors\n            uint funds = address(this).balance;\n            \n                for(uint i= 1; i < investorInstance.GetInvestors().length+1; i++){\n                    \n                }\n            \n                for(uint u = 1; u < investorInstance.GetInvestors().length+1; u++){\n                    uint temp_profit = funds * SafeMath.percent(investorInstance.GetUser_Money(investorInstance.GetidToAddr(u)), investorInstance.FundPool(), 3) / 1000;\n                    investorInstance.UpdateProfit(u, temp_profit);\n                    investorInstance.GetidToAddr(u).transfer(temp_profit);\n                }\n            VotetoDivide = 0;\n            VoteCondition.Yes = 0;\n            VoteCondition.No = 0;\n        }\n        return true;\n    }\n    \n    function() external payable{}\n}",
  "sourcePath": "/Users/you/Desktop/研究所課程/我的論文/論文實驗/InvestContract/contracts/Divided.sol",
  "compiler": {
    "name": "solc",
    "version": "0.5.0+commit.1d4f565a.Emscripten.clang"
  },
  "schemaVersion": "3.0.3",
  "updatedAt": "2019-04-20T07:26:52.563Z",
  "devdoc": {
    "methods": {}
  },
  "userdoc": {
    "methods": {}
  }
}