{
  "contractName": "Investor",
  "abi": [
    {
      "constant": true,
      "inputs": [
        {
          "name": "",
          "type": "address"
        }
      ],
      "name": "userToId",
      "outputs": [
        {
          "name": "",
          "type": "uint256"
        }
      ],
      "payable": false,
      "stateMutability": "view",
      "type": "function",
      "signature": "0x0b4805d3"
    },
    {
      "constant": true,
      "inputs": [],
      "name": "VoteCondition",
      "outputs": [
        {
          "name": "Yes",
          "type": "uint256"
        },
        {
          "name": "No",
          "type": "uint256"
        }
      ],
      "payable": false,
      "stateMutability": "view",
      "type": "function",
      "signature": "0x1dedddbe"
    },
    {
      "constant": true,
      "inputs": [
        {
          "name": "",
          "type": "uint256"
        }
      ],
      "name": "idToAddr",
      "outputs": [
        {
          "name": "",
          "type": "address"
        }
      ],
      "payable": false,
      "stateMutability": "view",
      "type": "function",
      "signature": "0x4511f56e"
    },
    {
      "constant": true,
      "inputs": [
        {
          "name": "",
          "type": "address"
        }
      ],
      "name": "users",
      "outputs": [
        {
          "name": "name",
          "type": "string"
        },
        {
          "name": "email",
          "type": "string"
        },
        {
          "name": "money",
          "type": "uint256"
        },
        {
          "name": "voted",
          "type": "uint256"
        },
        {
          "name": "profit",
          "type": "uint256"
        },
        {
          "name": "valid",
          "type": "bool"
        },
        {
          "name": "addr",
          "type": "address"
        },
        {
          "name": "isInvest",
          "type": "bool"
        }
      ],
      "payable": false,
      "stateMutability": "view",
      "type": "function",
      "signature": "0xa87430ba"
    },
    {
      "constant": true,
      "inputs": [],
      "name": "FundPool",
      "outputs": [
        {
          "name": "",
          "type": "uint256"
        }
      ],
      "payable": false,
      "stateMutability": "view",
      "type": "function",
      "signature": "0xe70b7acb"
    },
    {
      "inputs": [
        {
          "name": "STO",
          "type": "address"
        }
      ],
      "payable": true,
      "stateMutability": "payable",
      "type": "constructor",
      "signature": "constructor"
    },
    {
      "payable": true,
      "stateMutability": "payable",
      "type": "fallback"
    },
    {
      "constant": false,
      "inputs": [
        {
          "name": "_name",
          "type": "string"
        },
        {
          "name": "_email",
          "type": "string"
        }
      ],
      "name": "register",
      "outputs": [
        {
          "name": "",
          "type": "uint256"
        }
      ],
      "payable": false,
      "stateMutability": "nonpayable",
      "type": "function",
      "signature": "0x3ffbd47f"
    },
    {
      "constant": false,
      "inputs": [
        {
          "name": "YourIndex",
          "type": "uint256"
        }
      ],
      "name": "invest",
      "outputs": [
        {
          "name": "",
          "type": "uint256"
        }
      ],
      "payable": true,
      "stateMutability": "payable",
      "type": "function",
      "signature": "0x2afcf480"
    },
    {
      "constant": false,
      "inputs": [
        {
          "name": "YourIndex",
          "type": "uint256"
        },
        {
          "name": "withdrawAmount",
          "type": "uint256"
        }
      ],
      "name": "withdraw",
      "outputs": [
        {
          "name": "",
          "type": "uint256"
        }
      ],
      "payable": true,
      "stateMutability": "payable",
      "type": "function",
      "signature": "0x441a3e70"
    },
    {
      "constant": false,
      "inputs": [
        {
          "name": "YourIndex",
          "type": "uint256"
        },
        {
          "name": "YesFor1_or_NoFor0",
          "type": "uint256"
        }
      ],
      "name": "VoteToInvest",
      "outputs": [
        {
          "name": "",
          "type": "bool"
        }
      ],
      "payable": true,
      "stateMutability": "payable",
      "type": "function",
      "signature": "0x814da2e7"
    },
    {
      "constant": true,
      "inputs": [],
      "name": "CheckFundPool",
      "outputs": [
        {
          "name": "",
          "type": "uint256"
        }
      ],
      "payable": false,
      "stateMutability": "view",
      "type": "function",
      "signature": "0x5fa6c6c0"
    },
    {
      "constant": false,
      "inputs": [],
      "name": "RearrangeVote",
      "outputs": [
        {
          "name": "",
          "type": "bool"
        }
      ],
      "payable": false,
      "stateMutability": "nonpayable",
      "type": "function",
      "signature": "0xfb691633"
    },
    {
      "constant": true,
      "inputs": [
        {
          "name": "_add",
          "type": "address"
        }
      ],
      "name": "GetuserToId",
      "outputs": [
        {
          "name": "",
          "type": "uint256"
        }
      ],
      "payable": false,
      "stateMutability": "view",
      "type": "function",
      "signature": "0xe65d299b"
    },
    {
      "constant": false,
      "inputs": [
        {
          "name": "i",
          "type": "uint256"
        }
      ],
      "name": "GetidToAddr",
      "outputs": [
        {
          "name": "",
          "type": "address"
        }
      ],
      "payable": true,
      "stateMutability": "payable",
      "type": "function",
      "signature": "0x8ac33400"
    },
    {
      "constant": true,
      "inputs": [
        {
          "name": "_add",
          "type": "address"
        }
      ],
      "name": "GetUser_Votes",
      "outputs": [
        {
          "name": "",
          "type": "uint256"
        }
      ],
      "payable": false,
      "stateMutability": "view",
      "type": "function",
      "signature": "0xee6308e0"
    },
    {
      "constant": true,
      "inputs": [
        {
          "name": "_add",
          "type": "address"
        }
      ],
      "name": "GetUser_Money",
      "outputs": [
        {
          "name": "",
          "type": "uint256"
        }
      ],
      "payable": false,
      "stateMutability": "view",
      "type": "function",
      "signature": "0x08c906bf"
    },
    {
      "constant": true,
      "inputs": [],
      "name": "GetInvestors",
      "outputs": [
        {
          "name": "",
          "type": "address[]"
        }
      ],
      "payable": false,
      "stateMutability": "view",
      "type": "function",
      "signature": "0x1843d3e3"
    },
    {
      "constant": false,
      "inputs": [
        {
          "name": "index",
          "type": "uint256"
        }
      ],
      "name": "UpdateVote",
      "outputs": [
        {
          "name": "",
          "type": "uint256"
        }
      ],
      "payable": false,
      "stateMutability": "nonpayable",
      "type": "function",
      "signature": "0xe5da8f17"
    },
    {
      "constant": false,
      "inputs": [
        {
          "name": "index",
          "type": "uint256"
        },
        {
          "name": "theProfit",
          "type": "uint256"
        }
      ],
      "name": "UpdateProfit",
      "outputs": [
        {
          "name": "",
          "type": "uint256"
        }
      ],
      "payable": false,
      "stateMutability": "nonpayable",
      "type": "function",
      "signature": "0x9e4a51a2"
    }
  ],
  "bytecode": "0x6080604052604051602080611fe48339810180604052602081101561002357600080fd5b8101908080519060200190929190505050806000806101000a81548173ffffffffffffffffffffffffffffffffffffffff021916908373ffffffffffffffffffffffffffffffffffffffff16021790555050611f60806100846000396000f3fe6080604052600436106100fc576000357c0100000000000000000000000000000000000000000000000000000000900463ffffffff16806308c906bf146100fe5780630b4805d3146101635780631843d3e3146101c85780631dedddbe146102345780632afcf480146102665780633ffbd47f146102a8578063441a3e701461041b5780634511f56e146104675780635fa6c6c0146104e2578063814da2e71461050d5780638ac334001461055d5780639e4a51a2146105cb578063a87430ba14610624578063e5da8f17146107b8578063e65d299b14610807578063e70b7acb1461086c578063ee6308e014610897578063fb691633146108fc575b005b34801561010a57600080fd5b5061014d6004803603602081101561012157600080fd5b81019080803573ffffffffffffffffffffffffffffffffffffffff16906020019092919050505061092b565b6040518082815260200191505060405180910390f35b34801561016f57600080fd5b506101b26004803603602081101561018657600080fd5b81019080803573ffffffffffffffffffffffffffffffffffffffff169060200190929190505050610977565b6040518082815260200191505060405180910390f35b3480156101d457600080fd5b506101dd61098f565b6040518080602001828103825283818151815260200191508051906020019060200280838360005b83811015610220578082015181840152602081019050610205565b505050509050019250505060405180910390f35b34801561024057600080fd5b50610249610a1d565b604051808381526020018281526020019250505060405180910390f35b6102926004803603602081101561027c57600080fd5b8101908080359060200190929190505050610a2f565b6040518082815260200191505060405180910390f35b3480156102b457600080fd5b50610405600480360360408110156102cb57600080fd5b81019080803590602001906401000000008111156102e857600080fd5b8201836020820111156102fa57600080fd5b8035906020019184600183028401116401000000008311171561031c57600080fd5b91908080601f016020809104026020016040519081016040528093929190818152602001838380828437600081840152601f19601f8201169050808301925050505050505091929192908035906020019064010000000081111561037f57600080fd5b82018360208201111561039157600080fd5b803590602001918460018302840111640100000000831117156103b357600080fd5b91908080601f016020809104026020016040519081016040528093929190818152602001838380828437600081840152601f19601f820116905080830192505050505050509192919290505050610fa6565b6040518082815260200191505060405180910390f35b6104516004803603604081101561043157600080fd5b8101908080359060200190929190803590602001909291905050506112c5565b6040518082815260200191505060405180910390f35b34801561047357600080fd5b506104a06004803603602081101561048a57600080fd5b81019080803590602001909291905050506116af565b604051808273ffffffffffffffffffffffffffffffffffffffff1673ffffffffffffffffffffffffffffffffffffffff16815260200191505060405180910390f35b3480156104ee57600080fd5b506104f76116e2565b6040518082815260200191505060405180910390f35b6105436004803603604081101561052357600080fd5b810190808035906020019092919080359060200190929190505050611701565b604051808215151515815260200191505060405180910390f35b6105896004803603602081101561057357600080fd5b810190808035906020019092919050505061196b565b604051808273ffffffffffffffffffffffffffffffffffffffff1673ffffffffffffffffffffffffffffffffffffffff16815260200191505060405180910390f35b3480156105d757600080fd5b5061060e600480360360408110156105ee57600080fd5b810190808035906020019092919080359060200190929190505050611a0a565b6040518082815260200191505060405180910390f35b34801561063057600080fd5b506106736004803603602081101561064757600080fd5b81019080803573ffffffffffffffffffffffffffffffffffffffff169060200190929190505050611a8d565b604051808060200180602001898152602001888152602001878152602001861515151581526020018573ffffffffffffffffffffffffffffffffffffffff1673ffffffffffffffffffffffffffffffffffffffff1681526020018415151515815260200183810383528b818151815260200191508051906020019080838360005b8381101561070f5780820151818401526020810190506106f4565b50505050905090810190601f16801561073c5780820380516001836020036101000a031916815260200191505b5083810382528a818151815260200191508051906020019080838360005b8381101561077557808201518184015260208101905061075a565b50505050905090810190601f1680156107a25780820380516001836020036101000a031916815260200191505b509a505050505050505050505060405180910390f35b3480156107c457600080fd5b506107f1600480360360208110156107db57600080fd5b8101908080359060200190929190505050611c3f565b6040518082815260200191505060405180910390f35b34801561081357600080fd5b506108566004803603602081101561082a57600080fd5b81019080803573ffffffffffffffffffffffffffffffffffffffff169060200190929190505050611cc1565b6040518082815260200191505060405180910390f35b34801561087857600080fd5b50610881611d0a565b6040518082815260200191505060405180910390f35b3480156108a357600080fd5b506108e6600480360360208110156108ba57600080fd5b81019080803573ffffffffffffffffffffffffffffffffffffffff169060200190929190505050611d10565b6040518082815260200191505060405180910390f35b34801561090857600080fd5b50610911611d5c565b604051808215151515815260200191505060405180910390f35b6000600760008373ffffffffffffffffffffffffffffffffffffffff1673ffffffffffffffffffffffffffffffffffffffff168152602001908152602001600020600201549050919050565b60056020528060005260406000206000915090505481565b60606001805480602002602001604051908101604052809291908181526020018280548015610a1357602002820191906000526020600020905b8160009054906101000a900473ffffffffffffffffffffffffffffffffffffffff1673ffffffffffffffffffffffffffffffffffffffff16815260200190600101908083116109c9575b5050505050905090565b60098060000154908060010154905082565b600081600560003373ffffffffffffffffffffffffffffffffffffffff1673ffffffffffffffffffffffffffffffffffffffff16815260200190815260200160002054141515610a7e57600080fd5b6000600560006006600086815260200190815260200160002060009054906101000a900473ffffffffffffffffffffffffffffffffffffffff1673ffffffffffffffffffffffffffffffffffffffff1673ffffffffffffffffffffffffffffffffffffffff1681526020019081526020016000205414151515610b69576040517f08c379a000000000000000000000000000000000000000000000000000000000815260040180806020018281038252601d8152602001807f506c656173652063726561746520796f757220696e666f20666972737400000081525060200191505060405180910390fd5b6001600760006006600086815260200190815260200160002060009054906101000a900473ffffffffffffffffffffffffffffffffffffffff1673ffffffffffffffffffffffffffffffffffffffff1673ffffffffffffffffffffffffffffffffffffffff168152602001908152602001600020600301819055506001600760006006600086815260200190815260200160002060009054906101000a900473ffffffffffffffffffffffffffffffffffffffff1673ffffffffffffffffffffffffffffffffffffffff1673ffffffffffffffffffffffffffffffffffffffff16815260200190815260200160002060050160006101000a81548160ff02191690831515021790555034600760006006600086815260200190815260200160002060009054906101000a900473ffffffffffffffffffffffffffffffffffffffff1673ffffffffffffffffffffffffffffffffffffffff1673ffffffffffffffffffffffffffffffffffffffff16815260200190815260200160002060020160008282540192505081905550600760006006600085815260200190815260200160002060009054906101000a900473ffffffffffffffffffffffffffffffffffffffff1673ffffffffffffffffffffffffffffffffffffffff1673ffffffffffffffffffffffffffffffffffffffff1681526020019081526020016000206002015460086000828254019250508190555060001515600760006006600086815260200190815260200160002060009054906101000a900473ffffffffffffffffffffffffffffffffffffffff1673ffffffffffffffffffffffffffffffffffffffff1673ffffffffffffffffffffffffffffffffffffffff16815260200190815260200160002060050160159054906101000a900460ff1615151415610f295760016006600084815260200190815260200160002060009054906101000a900473ffffffffffffffffffffffffffffffffffffffff1690806001815401808255809150509060018203906000526020600020016000909192909190916101000a81548173ffffffffffffffffffffffffffffffffffffffff021916908373ffffffffffffffffffffffffffffffffffffffff1602179055505060011515600760006006600086815260200190815260200160002060009054906101000a900473ffffffffffffffffffffffffffffffffffffffff1673ffffffffffffffffffffffffffffffffffffffff1673ffffffffffffffffffffffffffffffffffffffff16815260200190815260200160002060050160159054906101000a905050505b600760006006600085815260200190815260200160002060009054906101000a900473ffffffffffffffffffffffffffffffffffffffff1673ffffffffffffffffffffffffffffffffffffffff1673ffffffffffffffffffffffffffffffffffffffff168152602001908152602001600020600201549050919050565b600080600560003373ffffffffffffffffffffffffffffffffffffffff1673ffffffffffffffffffffffffffffffffffffffff1681526020019081526020016000205414151561105e576040517f08c379a00000000000000000000000000000000000000000000000000000000081526004018080602001828103825260158152602001807f596f757220494420616c7265616479206578697374000000000000000000000081525060200191505060405180910390fd5b6004600081548092919060010191905055503360066000600454815260200190815260200160002060006101000a81548173ffffffffffffffffffffffffffffffffffffffff021916908373ffffffffffffffffffffffffffffffffffffffff160217905550600454600560003373ffffffffffffffffffffffffffffffffffffffff1673ffffffffffffffffffffffffffffffffffffffff16815260200190815260200160002081905550610100604051908101604052808481526020018381526020016000815260200160008152602001600081526020016000151581526020013373ffffffffffffffffffffffffffffffffffffffff168152602001600015158152506007600060066000600454815260200190815260200160002060009054906101000a900473ffffffffffffffffffffffffffffffffffffffff1673ffffffffffffffffffffffffffffffffffffffff1673ffffffffffffffffffffffffffffffffffffffff16815260200190815260200160002060008201518160000190805190602001906111f4929190611e8f565b506020820151816001019080519060200190611211929190611e8f565b5060408201518160020155606082015181600301556080820151816004015560a08201518160050160006101000a81548160ff02191690831515021790555060c08201518160050160016101000a81548173ffffffffffffffffffffffffffffffffffffffff021916908373ffffffffffffffffffffffffffffffffffffffff16021790555060e08201518160050160156101000a81548160ff021916908315150217905550905050600454905092915050565b600082600560003373ffffffffffffffffffffffffffffffffffffffff1673ffffffffffffffffffffffffffffffffffffffff1681526020019081526020016000205414151561131457600080fd5b600760006006600086815260200190815260200160002060009054906101000a900473ffffffffffffffffffffffffffffffffffffffff1673ffffffffffffffffffffffffffffffffffffffff1673ffffffffffffffffffffffffffffffffffffffff16815260200190815260200160002060020154821115151561139857600080fd5b81600760006006600087815260200190815260200160002060009054906101000a900473ffffffffffffffffffffffffffffffffffffffff1673ffffffffffffffffffffffffffffffffffffffff1673ffffffffffffffffffffffffffffffffffffffff168152602001908152602001600020600201541015156116315781600760006006600087815260200190815260200160002060009054906101000a900473ffffffffffffffffffffffffffffffffffffffff1673ffffffffffffffffffffffffffffffffffffffff1673ffffffffffffffffffffffffffffffffffffffff168152602001908152602001600020600201600082825403925050819055506006600084815260200190815260200160002060009054906101000a900473ffffffffffffffffffffffffffffffffffffffff1673ffffffffffffffffffffffffffffffffffffffff166108fc839081150290604051600060405180830381858888f19350505050158015611512573d6000803e3d6000fd5b506000600760006006600087815260200190815260200160002060009054906101000a900473ffffffffffffffffffffffffffffffffffffffff1673ffffffffffffffffffffffffffffffffffffffff1673ffffffffffffffffffffffffffffffffffffffff168152602001908152602001600020600201541415611620576000600760006006600087815260200190815260200160002060009054906101000a900473ffffffffffffffffffffffffffffffffffffffff1673ffffffffffffffffffffffffffffffffffffffff1673ffffffffffffffffffffffffffffffffffffffff16815260200190815260200160002060050160006101000a81548160ff0219169083151502179055505b816008600082825403925050819055505b600760006006600086815260200190815260200160002060009054906101000a900473ffffffffffffffffffffffffffffffffffffffff1673ffffffffffffffffffffffffffffffffffffffff1673ffffffffffffffffffffffffffffffffffffffff16815260200190815260200160002060020154905092915050565b60066020528060005260406000206000915054906101000a900473ffffffffffffffffffffffffffffffffffffffff1681565b60003073ffffffffffffffffffffffffffffffffffffffff1631905090565b600082600560003373ffffffffffffffffffffffffffffffffffffffff1673ffffffffffffffffffffffffffffffffffffffff1681526020019081526020016000205414151561175057600080fd5b6001600760006006600087815260200190815260200160002060009054906101000a900473ffffffffffffffffffffffffffffffffffffffff1673ffffffffffffffffffffffffffffffffffffffff1673ffffffffffffffffffffffffffffffffffffffff168152602001908152602001600020600301541415156117d457600080fd5b60018214806117e35750600082145b15156117ee57600080fd5b6001821415611810576001600960000160008282540192505081905550611825565b60016009600101600082825401925050819055505b6000600760006006600087815260200190815260200160002060009054906101000a900473ffffffffffffffffffffffffffffffffffffffff1673ffffffffffffffffffffffffffffffffffffffff1673ffffffffffffffffffffffffffffffffffffffff1681526020019081526020016000206003018190555060016002600082825401925050819055506002546001805490501480156118d35750600060096001015460096000015403115b15611961576000809054906101000a900473ffffffffffffffffffffffffffffffffffffffff1673ffffffffffffffffffffffffffffffffffffffff166108fc6008549081150290604051600060405180830381858888f19350505050158015611941573d6000803e3d6000fd5b506000600281905550600060096000018190555060006009600101819055505b6001905092915050565b6000600760006006600085815260200190815260200160002060009054906101000a900473ffffffffffffffffffffffffffffffffffffffff1673ffffffffffffffffffffffffffffffffffffffff1673ffffffffffffffffffffffffffffffffffffffff16815260200190815260200160002060050160019054906101000a900473ffffffffffffffffffffffffffffffffffffffff169050919050565b600081600760006006600087815260200190815260200160002060009054906101000a900473ffffffffffffffffffffffffffffffffffffffff1673ffffffffffffffffffffffffffffffffffffffff1673ffffffffffffffffffffffffffffffffffffffff168152602001908152602001600020600401819055905092915050565b6007602052806000526040600020600091509050806000018054600181600116156101000203166002900480601f016020809104026020016040519081016040528092919081815260200182805460018160011615610100020316600290048015611b395780601f10611b0e57610100808354040283529160200191611b39565b820191906000526020600020905b815481529060010190602001808311611b1c57829003601f168201915b505050505090806001018054600181600116156101000203166002900480601f016020809104026020016040519081016040528092919081815260200182805460018160011615610100020316600290048015611bd75780601f10611bac57610100808354040283529160200191611bd7565b820191906000526020600020905b815481529060010190602001808311611bba57829003601f168201915b5050505050908060020154908060030154908060040154908060050160009054906101000a900460ff16908060050160019054906101000a900473ffffffffffffffffffffffffffffffffffffffff16908060050160159054906101000a900460ff16905088565b600080600760006006600086815260200190815260200160002060009054906101000a900473ffffffffffffffffffffffffffffffffffffffff1673ffffffffffffffffffffffffffffffffffffffff1673ffffffffffffffffffffffffffffffffffffffff1681526020019081526020016000206003018190559050919050565b6000600560008373ffffffffffffffffffffffffffffffffffffffff1673ffffffffffffffffffffffffffffffffffffffff168152602001908152602001600020549050919050565b60085481565b6000600760008373ffffffffffffffffffffffffffffffffffffffff1673ffffffffffffffffffffffffffffffffffffffff168152602001908152602001600020600301549050919050565b600080600190505b6001808054905001811015611e8b5760011515600760006006600085815260200190815260200160002060009054906101000a900473ffffffffffffffffffffffffffffffffffffffff1673ffffffffffffffffffffffffffffffffffffffff1673ffffffffffffffffffffffffffffffffffffffff16815260200190815260200160002060050160009054906101000a900460ff1615151415611e7e576001600760006006600085815260200190815260200160002060009054906101000a900473ffffffffffffffffffffffffffffffffffffffff1673ffffffffffffffffffffffffffffffffffffffff1673ffffffffffffffffffffffffffffffffffffffff168152602001908152602001600020600301819055505b8080600101915050611d64565b5090565b828054600181600116156101000203166002900490600052602060002090601f016020900481019282601f10611ed057805160ff1916838001178555611efe565b82800160010185558215611efe579182015b82811115611efd578251825591602001919060010190611ee2565b5b509050611f0b9190611f0f565b5090565b611f3191905b80821115611f2d576000816000905550600101611f15565b5090565b9056fea165627a7a7230582053d1bdd0854be6236fa4a025dc514729107e43cb6aff5e1f904b30a0436bb13b0029",
  "source": "pragma solidity^0.5.0;\nimport \"./SafeMath.sol\";\ncontract Investor {\n    \n    address payable STOInstance;\n    constructor (address payable STO) public payable{\n        STOInstance = STO;\n    }\n    \n    struct User{\n        string name;\n        string email;\n        uint money; // the amount on investment\n        uint voted; // the right to vote\n        uint profit;\n        bool valid; // Is the account valid\n        address payable addr;\n        bool isInvest;\n    }\n    address[] allInvestor;\n    uint InvestVotenumber;\n    uint DistributeVotenumber;\n    uint private userId; //User[] users idid10\n    mapping (address => uint) public userToId;\n    mapping (uint => address payable) public idToAddr;\n    mapping (address => User) public users;\n    uint public FundPool;\n    struct Vote{\n        uint Yes;\n        uint No; \n    }\n    Vote public VoteCondition;\n    \n    function register(string memory _name,string memory _email) public returns(uint){\n        require(userToId[msg.sender] == 0 ,\"Your ID already exist\");\n        userId++;\n        idToAddr[userId] = msg.sender;\n        userToId[msg.sender] = userId;\n        users[idToAddr[userId]] = User({\n            name: _name,\n            email: _email,\n            money: 0,\n            voted: 0,\n            profit: 0,\n            valid: false,\n            isInvest: false,\n            addr: msg.sender\n        });\n        return userId;\n    }\n    \n    function invest(uint YourIndex) payable public returns(uint){\n        require(userToId[msg.sender] == YourIndex);\n        require(userToId[idToAddr[YourIndex]] != 0 ,\"Please create your info first\");\n        users[idToAddr[YourIndex]].voted = 1;\n        users[idToAddr[YourIndex]].valid = true;\n        users[idToAddr[YourIndex]].money += msg.value;\n        FundPool +=users[idToAddr[YourIndex]].money;\n        \n        if(users[idToAddr[YourIndex]].isInvest == false) {\n            allInvestor.push(idToAddr[YourIndex]);\n            users[idToAddr[YourIndex]].isInvest == true;\n        }\n        return users[idToAddr[YourIndex]].money;\n        return FundPool;\n    }\n    \n    function withdraw(uint YourIndex, uint withdrawAmount) payable public returns(uint){\n        require(userToId[msg.sender] == YourIndex);\n        require(withdrawAmount <= users[idToAddr[YourIndex]].money );\n        if (users[idToAddr[YourIndex]].money >= withdrawAmount){\n            users[idToAddr[YourIndex]].money -= withdrawAmount;\n            idToAddr[YourIndex].transfer(withdrawAmount);\n            if(users[idToAddr[YourIndex]].money == 0){               //\n                users[idToAddr[YourIndex]].valid = false;\n            }\n            FundPool -= withdrawAmount;\n        }    \n        return users[idToAddr[YourIndex]].money;\n    }\n    \n    function VoteToInvest(uint YourIndex, uint YesFor1_or_NoFor0) public payable returns(bool){\n        require(userToId[msg.sender] == YourIndex);\n        require(users[idToAddr[YourIndex]].voted ==1);       //make sure voter have right\n        require(YesFor1_or_NoFor0 == 1 || YesFor1_or_NoFor0 == 0 );\n        if(YesFor1_or_NoFor0 == 1){\n            VoteCondition.Yes += 1;\n        }\n        else{\n            VoteCondition.No += 1;\n        }\n        users[idToAddr[YourIndex]].voted = 0; //0\n        InvestVotenumber +=1;\n        if(allInvestor.length == InvestVotenumber && (VoteCondition.Yes-VoteCondition.No) > 0){  //\n            // transfer Money to Bank contract;\n            STOInstance.transfer(FundPool);\n            InvestVotenumber = 0;\n            VoteCondition.Yes = 0;\n            VoteCondition.No = 0;\n        }\n        return true;\n    }\n/*    \n    function VoteToDistribute(uint YourIndex, uint YesFor1_or_NoFor0) external payable returns(bool){\n        require(userToId[msg.sender] == YourIndex);\n        require(users[idToAddr[YourIndex]].voted ==1);       //make sure voter have right\n        require(YesFor1_or_NoFor0 == 1 || YesFor1_or_NoFor0 == 0 );\n        if(YesFor1_or_NoFor0 == 1){\n            VoteCondition.Yes += 1;\n        }\n        else{\n            VoteCondition.No += 1;\n        }\n        users[idToAddr[YourIndex]].voted = 0; //0\n        DistributeVotenumber +=1;\n        if(allInvestor.length == DistributeVotenumber && (VoteCondition.Yes-VoteCondition.No) > 0){  //\n            // distribute Money to Investors\n            uint funds = address(this).balance;\n                for(uint i= 1; i < allInvestor.length+1; i++){\n                    users[idToAddr[i]].profit = funds * SafeMath.percent(users[idToAddr[i]].money, FundPool, 3) / 1000;\n                }\n                for(uint u = 1; u < allInvestor.length+1; u++){\n                    users[idToAddr[u]].addr.transfer(users[idToAddr[u]].profit);\n                }\n            DistributeVotenumber = 0;\n            VoteCondition.Yes = 0;\n            VoteCondition.No = 0;\n        }\n        return true;\n        \n    }\n*/\n    function CheckFundPool() public view returns(uint){\n        return address(this).balance;\n    }\n     \n    function RearrangeVote() external returns(bool){\n        for(uint i = 1; i < allInvestor.length+1; i++){\n            if(users[idToAddr[i]].valid == true){\n                users[idToAddr[i]].voted = 1;\n            }\n        }\n    }\n    \n    function() external payable{}\n    //Get Function\n    function GetuserToId(address _add) external view returns(uint){\n        return userToId[_add];\n    }\n    function GetidToAddr(uint i) external  payable returns(address payable){\n        return users[idToAddr[i]].addr;\n    }\n    function GetUser_Votes(address _add) external view returns(uint){\n        return  users[_add].voted;\n    }\n    function GetUser_Money(address _add) external view returns(uint){\n        return  users[_add].money;\n    }\n    function GetInvestors() public view returns(address[] memory){\n        return allInvestor;\n    }\n    function UpdateVote(uint index) external  returns(uint){\n        return users[idToAddr[index]].voted = 0;\n    }\n    function UpdateProfit(uint index, uint theProfit) external returns(uint){\n        return users[idToAddr[index]].profit = theProfit;\n    }\n\n}",
  "sourcePath": "/Users/you/Desktop////InvestContract/contracts/Investor.sol",
  "compiler": {
    "name": "solc",
    "version": "0.5.0+commit.1d4f565a.Emscripten.clang"
  },
  "schemaVersion": "3.0.3",
  "updatedAt": "2019-04-20T07:26:52.595Z",
  "devdoc": {
    "methods": {}
  },
  "userdoc": {
    "methods": {}
  }
}