{
  "contractName": "STO",
  "abi": [
    {
      "inputs": [],
      "payable": false,
      "stateMutability": "nonpayable",
      "type": "constructor",
      "signature": "constructor"
    },
    {
      "payable": true,
      "stateMutability": "payable",
      "type": "fallback"
    },
    {
      "constant": true,
      "inputs": [],
      "name": "getBalance",
      "outputs": [
        {
          "name": "",
          "type": "uint256"
        }
      ],
      "payable": false,
      "stateMutability": "view",
      "type": "function",
      "signature": "0x12065fe0"
    }
  ],
  "bytecode": "0x6080604052348015600f57600080fd5b5060b48061001e6000396000f3fe608060405260043610603f576000357c0100000000000000000000000000000000000000000000000000000000900463ffffffff16806312065fe0146041575b005b348015604c57600080fd5b5060536069565b6040518082815260200191505060405180910390f35b60003073ffffffffffffffffffffffffffffffffffffffff163190509056fea165627a7a7230582097300c86098e7b82749aeadb5a2d2b76c63beacb77f47dabca3ee037eba38a730029",
  "source": "pragma solidity^0.5.0;\n\ncontract STO{\n    constructor() public{\n        \n    }\n    function getBalance() view public returns(uint){\n      return address(this).balance;\n    } \n    \n    function() external payable {\n    }\n}",
  "sourcePath": "/Users/you/Desktop/研究所課程/我的論文/論文實驗/InvestContract/contracts/STO.sol",
  "compiler": {
    "name": "solc",
    "version": "0.5.0+commit.1d4f565a.Emscripten.clang"
  },
  "schemaVersion": "3.0.3",
  "updatedAt": "2019-04-20T07:26:52.535Z",
  "devdoc": {
    "methods": {}
  },
  "userdoc": {
    "methods": {}
  }
}